{
  "contractName": "Healthchain",
  "abi": [
    {
      "inputs": [],
      "stateMutability": "nonpayable",
      "type": "constructor"
    },
    {
      "inputs": [
        {
          "internalType": "string",
          "name": "_name",
          "type": "string"
        },
        {
          "internalType": "address",
          "name": "_usrAddr",
          "type": "address"
        },
        {
          "internalType": "uint256",
          "name": "_premiumAmount",
          "type": "uint256"
        },
        {
          "internalType": "uint256",
          "name": "_insuranceAmount",
          "type": "uint256"
        },
        {
          "internalType": "uint256[]",
          "name": "_diagnosis",
          "type": "uint256[]"
        }
      ],
      "name": "addUser",
      "outputs": [],
      "stateMutability": "nonpayable",
      "type": "function"
    },
    {
      "inputs": [],
      "name": "getID",
      "outputs": [
        {
          "internalType": "bytes32",
          "name": "",
          "type": "bytes32"
        }
      ],
      "stateMutability": "view",
      "type": "function",
      "constant": true
    },
    {
      "inputs": [
        {
          "internalType": "bytes32",
          "name": "_id",
          "type": "bytes32"
        }
      ],
      "name": "getUserInsuranceDetails",
      "outputs": [
        {
          "internalType": "bytes32",
          "name": "",
          "type": "bytes32"
        },
        {
          "internalType": "string",
          "name": "",
          "type": "string"
        },
        {
          "internalType": "address",
          "name": "",
          "type": "address"
        },
        {
          "internalType": "uint256",
          "name": "",
          "type": "uint256"
        },
        {
          "internalType": "uint256",
          "name": "",
          "type": "uint256"
        },
        {
          "internalType": "uint256",
          "name": "",
          "type": "uint256"
        },
        {
          "internalType": "enum Healthchain.Status",
          "name": "",
          "type": "uint8"
        }
      ],
      "stateMutability": "view",
      "type": "function",
      "constant": true
    },
    {
      "inputs": [
        {
          "internalType": "bytes32",
          "name": "_id",
          "type": "bytes32"
        }
      ],
      "name": "payPremium",
      "outputs": [],
      "stateMutability": "payable",
      "type": "function",
      "payable": true
    },
    {
      "inputs": [
        {
          "internalType": "bytes32",
          "name": "_id",
          "type": "bytes32"
        },
        {
          "internalType": "uint256",
          "name": "_diagnosis",
          "type": "uint256"
        },
        {
          "internalType": "uint256",
          "name": "_amount",
          "type": "uint256"
        }
      ],
      "name": "calculateAmountPaidByInsurance",
      "outputs": [
        {
          "internalType": "uint256",
          "name": "",
          "type": "uint256"
        }
      ],
      "stateMutability": "view",
      "type": "function",
      "constant": true
    },
    {
      "inputs": [
        {
          "internalType": "bytes32",
          "name": "_id",
          "type": "bytes32"
        }
      ],
      "name": "revokeInsurance",
      "outputs": [],
      "stateMutability": "nonpayable",
      "type": "function"
    },
    {
      "inputs": [
        {
          "internalType": "bytes32",
          "name": "_id",
          "type": "bytes32"
        },
        {
          "internalType": "uint256",
          "name": "_diagnosis",
          "type": "uint256"
        },
        {
          "internalType": "uint256",
          "name": "_amount",
          "type": "uint256"
        }
      ],
      "name": "claimInsurance",
      "outputs": [
        {
          "internalType": "uint256",
          "name": "",
          "type": "uint256"
        }
      ],
      "stateMutability": "payable",
      "type": "function",
      "payable": true
    },
    {
      "inputs": [],
      "name": "depositFunds",
      "outputs": [],
      "stateMutability": "payable",
      "type": "function",
      "payable": true
    }
  ],
  "bytecode": "0x608060405234801561001057600080fd5b50336000806101000a81548173ffffffffffffffffffffffffffffffffffffffff021916908373ffffffffffffffffffffffffffffffffffffffff160217905550611455806100606000396000f3fe60806040526004361061007b5760003560e01c8063ab9dbd071161004e578063ab9dbd0714610273578063d8e2d2ba1461029e578063e2c41dbc146102cc578063ede7c410146102d65761007b565b806310146f55146100805780632e995f13146100d65780632ffc8b06146101115780636f70072c14610174575b600080fd5b6100c06004803603606081101561009657600080fd5b81019080803590602001909291908035906020019092919080359060200190929190505050610427565b6040518082815260200191505060405180910390f35b3480156100e257600080fd5b5061010f600480360360208110156100f957600080fd5b8101908080359060200190929190505050610794565b005b34801561011d57600080fd5b5061015e6004803603606081101561013457600080fd5b81019080803590602001909291908035906020019092919080359060200190929190505050610890565b6040518082815260200191505060405180910390f35b34801561018057600080fd5b506101ad6004803603602081101561019757600080fd5b8101908080359060200190929190505050610bcd565b60405180888152602001806020018773ffffffffffffffffffffffffffffffffffffffff1681526020018681526020018581526020018481526020018360038111156101f557fe5b8152602001828103825288818151815260200191508051906020019080838360005b83811015610232578082015181840152602081019050610217565b50505050905090810190601f16801561025f5780820380516001836020036101000a031916815260200191505b509850505050505050505060405180910390f35b34801561027f57600080fd5b50610288610d5b565b6040518082815260200191505060405180910390f35b6102ca600480360360208110156102b457600080fd5b8101908080359060200190929190505050610da2565b005b6102d4610f78565b005b3480156102e257600080fd5b50610425600480360360a08110156102f957600080fd5b810190808035906020019064010000000081111561031657600080fd5b82018360208201111561032857600080fd5b8035906020019184600183028401116401000000008311171561034a57600080fd5b91908080601f016020809104026020016040519081016040528093929190818152602001838380828437600081840152601f19601f820116905080830192505050505050509192919290803573ffffffffffffffffffffffffffffffffffffffff1690602001909291908035906020019092919080359060200190929190803590602001906401000000008111156103e157600080fd5b8201836020820111156103f357600080fd5b8035906020019184602083028401116401000000008311171561041557600080fd5b909192939192939050505061103b565b005b600083836001151560016000848152602001908152602001600020600701600083600381111561045357fe5b600381111561045e57fe5b600381111561046957fe5b815260200190815260200160002060009054906101000a900460ff161515146104fa576040517f08c379a00000000000000000000000000000000000000000000000000000000081526004018080602001828103825260208152602001807f44697365617365206e6f7420636f766572656420627920496e737572616e636581525060200191505060405180910390fd5b856000600160008381526020019081526020016000206006015411610587576040517f08c379a00000000000000000000000000000000000000000000000000000000081526004018080602001828103825260158152602001807f496e737572616e636520616d6f756e742069732030000000000000000000000081525060200191505060405180910390fd5b866000600381111561059557fe5b6001600083815260200190815260200160002060080160009054906101000a900460ff1660038111156105c457fe5b14610637576040517f08c379a00000000000000000000000000000000000000000000000000000000081526004018080602001828103825260118152602001807f537461747573204e6f742041637469766500000000000000000000000000000081525060200191505060405180910390fd5b8760016000828152602001908152602001600020600301544211801561069757506002600381111561066557fe5b6001600083815260200190815260200160002060080160009054906101000a900460ff16600381111561069457fe5b14155b1561070a576040517f08c379a00000000000000000000000000000000000000000000000000000000081526004018080602001828103825260118152602001807f496e737572616e6365204578706972656400000000000000000000000000000081525060200191505060405180910390fd5b60006107178a8a8a610890565b905080600160008c8152602001908152602001600020600601600082825403925050819055503373ffffffffffffffffffffffffffffffffffffffff166108fc829081150290604051600060405180830381858888f19350505050158015610783573d6000803e3d6000fd5b508096505050505050509392505050565b3373ffffffffffffffffffffffffffffffffffffffff1660008054906101000a900473ffffffffffffffffffffffffffffffffffffffff1673ffffffffffffffffffffffffffffffffffffffff1614610855576040517f08c379a00000000000000000000000000000000000000000000000000000000081526004018080602001828103825260118152602001807f41646d696e20416363657373204f6e6c7900000000000000000000000000000081525060200191505060405180910390fd5b60036001600083815260200190815260200160002060080160006101000a81548160ff0219169083600381111561088857fe5b021790555050565b60008383600115156001600084815260200190815260200160002060070160008360038111156108bc57fe5b60038111156108c757fe5b60038111156108d257fe5b815260200190815260200160002060009054906101000a900460ff16151514610963576040517f08c379a00000000000000000000000000000000000000000000000000000000081526004018080602001828103825260208152602001807f44697365617365206e6f7420636f766572656420627920496e737572616e636581525060200191505060405180910390fd5b8560006001600083815260200190815260200160002060060154116109f0576040517f08c379a00000000000000000000000000000000000000000000000000000000081526004018080602001828103825260158152602001807f496e737572616e636520616d6f756e742069732030000000000000000000000081525060200191505060405180910390fd5b86600060038111156109fe57fe5b6001600083815260200190815260200160002060080160009054906101000a900460ff166003811115610a2d57fe5b14610aa0576040517f08c379a00000000000000000000000000000000000000000000000000000000081526004018080602001828103825260118152602001807f537461747573204e6f742041637469766500000000000000000000000000000081525060200191505060405180910390fd5b87600160008281526020019081526020016000206003015442118015610b00575060026003811115610ace57fe5b6001600083815260200190815260200160002060080160009054906101000a900460ff166003811115610afd57fe5b14155b15610b73576040517f08c379a00000000000000000000000000000000000000000000000000000000081526004018080602001828103825260118152602001807f496e737572616e6365204578706972656400000000000000000000000000000081525060200191505060405180910390fd5b600060646050890281610b8257fe5b049050600160008b815260200190815260200160002060060154811115610bbd57600160008b81526020019081526020016000206006015490505b8096505050505050509392505050565b6000606060008060008060006001600089815260200190815260200160002060000154600160008a8152602001908152602001600020600101600160008b815260200190815260200160002060020160009054906101000a900473ffffffffffffffffffffffffffffffffffffffff16600160008c815260200190815260200160002060030154600160008d815260200190815260200160002060050154600160008e815260200190815260200160002060060154600160008f815260200190815260200160002060080160009054906101000a900460ff16858054600181600116156101000203166002900480601f016020809104026020016040519081016040528092919081815260200182805460018160011615610100020316600290048015610d3b5780601f10610d1057610100808354040283529160200191610d3b565b820191906000526020600020905b815481529060010190602001808311610d1e57829003601f168201915b505050505095509650965096509650965096509650919395979092949650565b6000600260003373ffffffffffffffffffffffffffffffffffffffff1673ffffffffffffffffffffffffffffffffffffffff16815260200190815260200160002054905090565b803373ffffffffffffffffffffffffffffffffffffffff166001600083815260200190815260200160002060020160009054906101000a900473ffffffffffffffffffffffffffffffffffffffff1673ffffffffffffffffffffffffffffffffffffffff1614610e7a576040517f08c379a00000000000000000000000000000000000000000000000000000000081526004018080602001828103825260108152602001807f5573657220416363657373204f6e6c790000000000000000000000000000000081525060200191505060405180910390fd5b8134600160008381526020019081526020016000206004015414610ee9576040517f08c379a00000000000000000000000000000000000000000000000000000000081526004018080602001828103825260228152602001806113fe6022913960400191505060405180910390fd5b60006001600085815260200190815260200160002060080160006101000a81548160ff02191690836003811115610f1c57fe5b0217905550600160008481526020019081526020016000206005015460016000858152602001908152602001600020600601819055506301e1338042026001600085815260200190815260200160002060030181905550505050565b3373ffffffffffffffffffffffffffffffffffffffff1660008054906101000a900473ffffffffffffffffffffffffffffffffffffffff1673ffffffffffffffffffffffffffffffffffffffff1614611039576040517f08c379a00000000000000000000000000000000000000000000000000000000081526004018080602001828103825260118152602001807f41646d696e20416363657373204f6e6c7900000000000000000000000000000081525060200191505060405180910390fd5b565b3373ffffffffffffffffffffffffffffffffffffffff1660008054906101000a900473ffffffffffffffffffffffffffffffffffffffff1673ffffffffffffffffffffffffffffffffffffffff16146110fc576040517f08c379a00000000000000000000000000000000000000000000000000000000081526004018080602001828103825260118152602001807f41646d696e20416363657373204f6e6c7900000000000000000000000000000081525060200191505060405180910390fd5b60008533604051602001808373ffffffffffffffffffffffffffffffffffffffff1660601b81526014018273ffffffffffffffffffffffffffffffffffffffff1660601b815260140192505050604051602081830303815290604052805190602001209050806001600083815260200190815260200160002060000181905550866001600083815260200190815260200160002060010190805190602001906111a6929190611360565b50856001600083815260200190815260200160002060020160006101000a81548173ffffffffffffffffffffffffffffffffffffffff021916908373ffffffffffffffffffffffffffffffffffffffff160217905550846001600083815260200190815260200160002060040181905550836001600083815260200190815260200160002060050181905550600180600083815260200190815260200160002060080160006101000a81548160ff0219169083600381111561126457fe5b02179055506000600160008381526020019081526020016000206006018190555060005b8383905081101561131257600180600084815260200190815260200160002060070160008686858181106112b857fe5b9050602002013560038111156112ca57fe5b60038111156112d557fe5b60038111156112e057fe5b815260200190815260200160002060006101000a81548160ff0219169083151502179055508080600101915050611288565b5080600260008873ffffffffffffffffffffffffffffffffffffffff1673ffffffffffffffffffffffffffffffffffffffff1681526020019081526020016000208190555050505050505050565b828054600181600116156101000203166002900490600052602060002090601f016020900481019282601f106113a157805160ff19168380011785556113cf565b828001600101855582156113cf579182015b828111156113ce5782518255916020019190600101906113b3565b5b5090506113dc91906113e0565b5090565b5b808211156113f95760008160009055506001016113e1565b509056fe416d6f756e7420446f6573206e6f74206d617463682077697468207072656d69756da264697066735822122004eb2e12657f797cc975d5f460fc9222156766aba4cccd66ee786bc94085915c64736f6c63430007000033",
  "immutableReferences": {},
  "source": "// SPDX-License-Identifier: UNLICENSED\npragma solidity >=0.6.12;\n\ncontract Healthchain{\n    \n    address admin;\n    enum Status{\n        Active,\n        Pending,\n        Expired,\n        Revoked\n    }\n    \n    enum coveredByInsurance{\n        \n        Diarrhea,\n        Malaria,\n        AccidentRelated,\n        Cataract\n    }\n    \n    struct userDetails{\n        bytes32 id; //unique id generated by contract\n        string name;\n        address usrAddress;\n        uint expiryDate;\n        uint premiumAmount;\n        uint insuranceAmount;\n        uint currentInsuranceAmount;\n        mapping(coveredByInsurance=>bool) treatmentCovered;\n        Status status;\n    }\n    \n    mapping(bytes32 => userDetails) userInsuranceDetails;\n    \n    //Only admin is allowed to access the function\n    modifier onlyAdmin{\n        require(admin == msg.sender,\"Admin Access Only\");\n        _;\n    }\n    \n    //Only user is allowed to access the function\n    modifier onlyUser(bytes32 _id){\n        require(userInsuranceDetails[_id].usrAddress == msg.sender,\"User Access Only\");\n        _;\n    }\n    \n    //Checks if the amount paid by user is equal to the prmium amount\n    modifier validPremium(bytes32 _id){\n        require(userInsuranceDetails[_id].premiumAmount==msg.value,\"Amount Does not match with premium\");\n        _;\n    }\n    \n    //Checks if the diisease diagnosd is covered by insurance\n    modifier isTreatmentCoveredByInsurance(bytes32 _id,uint _diagnosis){\n        require(userInsuranceDetails[_id].treatmentCovered[coveredByInsurance(_diagnosis)]==true,\"Disease not covered by Insurance\");\n        _;\n    }\n    \n    //Checks if the insurance amount available for the user is not null\n    modifier isInsuranceAmountNotNull(bytes32 _id){\n        require(userInsuranceDetails[_id].currentInsuranceAmount>0,\"Insurance amount is 0\");\n        _;\n    }\n    \n    //Checks if the insurance status is Active\n    modifier isStatusActive(bytes32 _id){\n        require(userInsuranceDetails[_id].status==Status.Active,\"Status Not Active\");\n        _;\n    }\n    \n    //checks if the insurance validity is expired or not\n    modifier checkExpiryDate(bytes32 _id){\n        if(block.timestamp > userInsuranceDetails[_id].expiryDate &&  userInsuranceDetails[_id].status != Status.Expired){\n           // userInsuranceDetails[_id].status=Status.Expired;\n            revert(\"Insurance Expired\");\n        }\n        else{\n            _;\n        }\n    }\n    constructor() public{\n       admin = msg.sender;\n    }\n    \n    mapping(address=>bytes32) idAddrMap;\n    \n    //creates new user \n    function addUser(string memory _name, address _usrAddr, uint _premiumAmount, uint _insuranceAmount, uint[] calldata _diagnosis ) external  onlyAdmin{\n        bytes32 _id = keccak256(abi.encodePacked(_usrAddr,msg.sender));\n       \n        userInsuranceDetails[_id].id=_id;\n        userInsuranceDetails[_id].name=_name;\n        userInsuranceDetails[_id].usrAddress=_usrAddr;\n        userInsuranceDetails[_id].premiumAmount=_premiumAmount;\n        userInsuranceDetails[_id].insuranceAmount=_insuranceAmount;\n        userInsuranceDetails[_id].status = Status.Pending;\n        userInsuranceDetails[_id].currentInsuranceAmount=0;\n        for(uint i=0;i<_diagnosis.length;i++){\n            userInsuranceDetails[_id].treatmentCovered[coveredByInsurance(_diagnosis[i])]=true;\n        }\n        idAddrMap[_usrAddr] = _id;\n    }\n    \n    function getID() external view returns(bytes32){\n        return idAddrMap[msg.sender];\n    }\n    \n\n    \n    //fetched user details\n    function getUserInsuranceDetails(bytes32 _id)external view returns(bytes32,string memory,address, uint,uint,uint,Status){\n        return(userInsuranceDetails[_id].id,userInsuranceDetails[_id].name,userInsuranceDetails[_id].usrAddress,userInsuranceDetails[_id].expiryDate,userInsuranceDetails[_id].insuranceAmount,userInsuranceDetails[_id].currentInsuranceAmount,userInsuranceDetails[_id].status);\n        \n    }\n    \n    //user pays the premium\n    function payPremium(bytes32 _id) payable public onlyUser(_id) validPremium(_id) {\n        userInsuranceDetails[_id].status=Status.Active;\n        userInsuranceDetails[_id].currentInsuranceAmount=userInsuranceDetails[_id].insuranceAmount;\n        userInsuranceDetails[_id].expiryDate = block.timestamp * 365 days;\n    }\n\n    //Calculates the amount paid by the insurance agency\n    function calculateAmountPaidByInsurance(bytes32 _id, uint _diagnosis, uint _amount) public view\n        isTreatmentCoveredByInsurance(_id, _diagnosis) isInsuranceAmountNotNull(_id) isStatusActive(_id) checkExpiryDate(_id) returns(uint){\n        uint _amountPayable = _amount*80/100;\n        if(_amountPayable>userInsuranceDetails[_id].currentInsuranceAmount){\n            _amountPayable = userInsuranceDetails[_id].currentInsuranceAmount;\n        }\n        return _amountPayable;\n    }\n    \n    //Revoking user Insurance \n    function revokeInsurance(bytes32 _id) external onlyAdmin{\n        userInsuranceDetails[_id].status = Status.Revoked;\n    }\n    \n    //Function where Hospital can claim the insurance amount\n    function claimInsurance(bytes32 _id, uint _diagnosis, uint _amount ) payable public \n        isTreatmentCoveredByInsurance(_id, _diagnosis) isInsuranceAmountNotNull(_id) isStatusActive(_id) checkExpiryDate(_id) returns(uint){\n        uint amountToBePaid = calculateAmountPaidByInsurance(_id,_diagnosis,_amount);\n        userInsuranceDetails[_id].currentInsuranceAmount-=amountToBePaid;\n        msg.sender.transfer(amountToBePaid);\n        return amountToBePaid;\n    } \n    \n    //insurance agency can deposit money    \n    function depositFunds() public payable onlyAdmin{\n    \n    }\n    \n   /* function verifyPremium(bytes32 _id, uint _diagnosis) public view returns(bool){\n        if(userInsuranceDetails[_id].treatmentCovered[coveredByInsurance(_diagnosis)]==true){\n            return true;\n        }\n        return false;\n    }*/\n    \n}\n",
  "sourcePath": "/Users/SK-Dev/SK/Github/Healthchain/contracts/Healthchain.sol",
  "compiler": {
    "name": "solc",
    "version": "0.7.0+commit.9e61f92b.Emscripten.clang"
  },
  "schemaVersion": "3.2.4",
  "updatedAt": "2020-12-20T14:11:16.980Z",
  "networkType": "ethereum",
  "devdoc": {
    "kind": "dev",
    "methods": {},
    "version": 1
  },
  "userdoc": {
    "kind": "user",
    "methods": {},
    "version": 1
  }
}