{
  "contractName": "Healthchain",
  "abi": [
    {
      "constant": true,
      "inputs": [
        {
          "internalType": "address",
          "name": "",
          "type": "address"
        },
        {
          "internalType": "uint256",
          "name": "",
          "type": "uint256"
        }
      ],
      "name": "doctorsPermissions",
      "outputs": [
        {
          "internalType": "address",
          "name": "",
          "type": "address"
        }
      ],
      "payable": false,
      "stateMutability": "view",
      "type": "function"
    },
    {
      "constant": true,
      "inputs": [
        {
          "internalType": "address",
          "name": "",
          "type": "address"
        },
        {
          "internalType": "uint256",
          "name": "",
          "type": "uint256"
        }
      ],
      "name": "documents",
      "outputs": [
        {
          "internalType": "string",
          "name": "",
          "type": "string"
        }
      ],
      "payable": false,
      "stateMutability": "view",
      "type": "function"
    },
    {
      "constant": false,
      "inputs": [
        {
          "internalType": "string",
          "name": "documentHash",
          "type": "string"
        }
      ],
      "name": "addDocument",
      "outputs": [
        {
          "internalType": "uint256",
          "name": "",
          "type": "uint256"
        }
      ],
      "payable": false,
      "stateMutability": "nonpayable",
      "type": "function"
    },
    {
      "constant": true,
      "inputs": [
        {
          "internalType": "address",
          "name": "user",
          "type": "address"
        }
      ],
      "name": "getDocuments",
      "outputs": [
        {
          "internalType": "string[]",
          "name": "",
          "type": "string[]"
        }
      ],
      "payable": false,
      "stateMutability": "view",
      "type": "function"
    },
    {
      "constant": false,
      "inputs": [
        {
          "internalType": "address",
          "name": "doctor",
          "type": "address"
        }
      ],
      "name": "giveAccessToDoctor",
      "outputs": [],
      "payable": false,
      "stateMutability": "nonpayable",
      "type": "function"
    },
    {
      "constant": false,
      "inputs": [
        {
          "internalType": "address",
          "name": "doctor",
          "type": "address"
        },
        {
          "internalType": "uint256",
          "name": "index",
          "type": "uint256"
        }
      ],
      "name": "revokeAccessFromDoctor",
      "outputs": [],
      "payable": false,
      "stateMutability": "nonpayable",
      "type": "function"
    },
    {
      "constant": true,
      "inputs": [
        {
          "internalType": "address",
          "name": "doctor",
          "type": "address"
        }
      ],
      "name": "getDoctorsPermissions",
      "outputs": [
        {
          "internalType": "address[]",
          "name": "",
          "type": "address[]"
        }
      ],
      "payable": false,
      "stateMutability": "view",
      "type": "function"
    }
  ],
  "bytecode": "0x608060405234801561001057600080fd5b50610dbe806100206000396000f3fe608060405234801561001057600080fd5b506004361061007d5760003560e01c8063633988441161005b57806363398844146100fe57806376e695ad1461012e578063f740e0451461015e578063fdd198571461018e5761007d565b806306be09d81461008257806327f50a2d146100b257806328b2b968146100e2575b600080fd5b61009c60048036036100979190810190610860565b6101aa565b6040516100a99190610b25565b60405180910390f35b6100cc60048036036100c79190810190610860565b610277565b6040516100d99190610b47565b60405180910390f35b6100fc60048036036100f79190810190610860565b61039e565b005b61011860048036036101139190810190610889565b610444565b6040516101259190610b69565b60405180910390f35b61014860048036036101439190810190610889565b61050a565b6040516101559190610b0a565b60405180910390f35b610178600480360361017391908101906108c5565b610555565b6040516101859190610bab565b60405180910390f35b6101a860048036036101a39190810190610889565b6105e0565b005b6060600160008373ffffffffffffffffffffffffffffffffffffffff1673ffffffffffffffffffffffffffffffffffffffff16815260200190815260200160002080548060200260200160405190810160405280929190818152602001828054801561026b57602002820191906000526020600020905b8160009054906101000a900473ffffffffffffffffffffffffffffffffffffffff1673ffffffffffffffffffffffffffffffffffffffff1681526020019060010190808311610221575b50505050509050919050565b60606000808373ffffffffffffffffffffffffffffffffffffffff1673ffffffffffffffffffffffffffffffffffffffff168152602001908152602001600020805480602002602001604051908101604052809291908181526020016000905b82821015610393578382906000526020600020018054600181600116156101000203166002900480601f01602080910402602001604051908101604052809291908181526020018280546001816001161561010002031660029004801561037f5780601f106103545761010080835404028352916020019161037f565b820191906000526020600020905b81548152906001019060200180831161036257829003601f168201915b5050505050815260200190600101906102d7565b505050509050919050565b600160008273ffffffffffffffffffffffffffffffffffffffff1673ffffffffffffffffffffffffffffffffffffffff1681526020019081526020016000203390806001815401808255809150509060018203906000526020600020016000909192909190916101000a81548173ffffffffffffffffffffffffffffffffffffffff021916908373ffffffffffffffffffffffffffffffffffffffff1602179055505050565b6000602052816000526040600020818154811061045d57fe5b90600052602060002001600091509150508054600181600116156101000203166002900480601f0160208091040260200160405190810160405280929190818152602001828054600181600116156101000203166002900480156105025780601f106104d757610100808354040283529160200191610502565b820191906000526020600020905b8154815290600101906020018083116104e557829003601f168201915b505050505081565b6001602052816000526040600020818154811061052357fe5b906000526020600020016000915091509054906101000a900473ffffffffffffffffffffffffffffffffffffffff1681565b60008033905060016000808373ffffffffffffffffffffffffffffffffffffffff1673ffffffffffffffffffffffffffffffffffffffff1681526020019081526020016000208490806001815401808255809150509060018203906000526020600020016000909192909190915090805190602001906105d692919061073d565b5003915050919050565b3373ffffffffffffffffffffffffffffffffffffffff16600160008473ffffffffffffffffffffffffffffffffffffffff1673ffffffffffffffffffffffffffffffffffffffff168152602001908152602001600020828154811061064157fe5b9060005260206000200160009054906101000a900473ffffffffffffffffffffffffffffffffffffffff1673ffffffffffffffffffffffffffffffffffffffff16146106c2576040517f08c379a00000000000000000000000000000000000000000000000000000000081526004016106b990610b8b565b60405180910390fd5b600160008373ffffffffffffffffffffffffffffffffffffffff1673ffffffffffffffffffffffffffffffffffffffff168152602001908152602001600020818154811061070c57fe5b9060005260206000200160006101000a81549073ffffffffffffffffffffffffffffffffffffffff02191690555050565b828054600181600116156101000203166002900490600052602060002090601f016020900481019282601f1061077e57805160ff19168380011785556107ac565b828001600101855582156107ac579182015b828111156107ab578251825591602001919060010190610790565b5b5090506107b991906107bd565b5090565b6107df91905b808211156107db5760008160009055506001016107c3565b5090565b90565b6000813590506107f181610d4d565b92915050565b600082601f83011261080857600080fd5b813561081b61081682610bf3565b610bc6565b9150808252602083016020830185838301111561083757600080fd5b610842838284610cfa565b50505092915050565b60008135905061085a81610d64565b92915050565b60006020828403121561087257600080fd5b6000610880848285016107e2565b91505092915050565b6000806040838503121561089c57600080fd5b60006108aa858286016107e2565b92505060206108bb8582860161084b565b9150509250929050565b6000602082840312156108d757600080fd5b600082013567ffffffffffffffff8111156108f157600080fd5b6108fd848285016107f7565b91505092915050565b60006109128383610932565b60208301905092915050565b600061092a8383610a23565b905092915050565b61093b81610cbe565b82525050565b61094a81610cbe565b82525050565b600061095b82610c3f565b6109658185610c7a565b935061097083610c1f565b8060005b838110156109a15781516109888882610906565b975061099383610c60565b925050600181019050610974565b5085935050505092915050565b60006109b982610c4a565b6109c38185610c8b565b9350836020820285016109d585610c2f565b8060005b85811015610a1157848403895281516109f2858261091e565b94506109fd83610c6d565b925060208a019950506001810190506109d9565b50829750879550505050505092915050565b6000610a2e82610c55565b610a388185610c9c565b9350610a48818560208601610d09565b610a5181610d3c565b840191505092915050565b6000610a6782610c55565b610a718185610cad565b9350610a81818560208601610d09565b610a8a81610d3c565b840191505092915050565b6000610aa2603183610cad565b91507f596f752063616e206f6e6c79207265766f6b652061636365737320746f20796f60008301527f7572206f776e20646f63756d656e74732e0000000000000000000000000000006020830152604082019050919050565b610b0481610cf0565b82525050565b6000602082019050610b1f6000830184610941565b92915050565b60006020820190508181036000830152610b3f8184610950565b905092915050565b60006020820190508181036000830152610b6181846109ae565b905092915050565b60006020820190508181036000830152610b838184610a5c565b905092915050565b60006020820190508181036000830152610ba481610a95565b9050919050565b6000602082019050610bc06000830184610afb565b92915050565b6000604051905081810181811067ffffffffffffffff82111715610be957600080fd5b8060405250919050565b600067ffffffffffffffff821115610c0a57600080fd5b601f19601f8301169050602081019050919050565b6000819050602082019050919050565b6000819050602082019050919050565b600081519050919050565b600081519050919050565b600081519050919050565b6000602082019050919050565b6000602082019050919050565b600082825260208201905092915050565b600082825260208201905092915050565b600082825260208201905092915050565b600082825260208201905092915050565b6000610cc982610cd0565b9050919050565b600073ffffffffffffffffffffffffffffffffffffffff82169050919050565b6000819050919050565b82818337600083830152505050565b60005b83811015610d27578082015181840152602081019050610d0c565b83811115610d36576000848401525b50505050565b6000601f19601f8301169050919050565b610d5681610cbe565b8114610d6157600080fd5b50565b610d6d81610cf0565b8114610d7857600080fd5b5056fea365627a7a7231582045e05fa58b2fd6a71d8dd6a89e9d91c6e0f7faeac5183940db674d002ad591a96c6578706572696d656e74616cf564736f6c63430005100040",
  "source": "pragma solidity ^0.5.0;\n/* ABIEncoderV2 is needed to return an array from a function. */\npragma experimental ABIEncoderV2;\n\ncontract Healthchain {\n\n  /* Every user has a list of documents. */\n  mapping (address => string[]) public documents;\n\n  /**\n   * Add a medical record.\n   * Returns the index of the medical record.\n   */\n  function addDocument(string memory documentHash) public returns (uint) {\n    address from = msg.sender;\n    // push returns the array length\n    return documents[from].push(documentHash) - 1;\n  }\n\n  /**\n   * Get all medical records of a user.\n   */\n  function getDocuments(address user) public view returns (string[] memory) {\n    return documents[user];\n  }\n\n  /**\n   * A user can specify, which doctors are allowed to view their medical records.\n   * Access is granted, when the user adds his address to a doctors list of patients.\n   * As soon as the user address is removed from the list, access for the doctor is revoked.\n   *\n   * mapping: doctorsAddress -> patientsAddresses\n   */\n  mapping (address => address[]) public doctorsPermissions;\n\n  /**\n   * Allow a doctor to view all your documents.\n   */\n  function giveAccessToDoctor(address doctor) public {\n    doctorsPermissions[doctor].push(msg.sender);\n  }\n\n  /**\n   * Revoke a doctors access to your documents.\n   */\n  function revokeAccessFromDoctor(address doctor, uint index) public {\n    require(doctorsPermissions[doctor][index] == msg.sender, 'You can only revoke access to your own documents.');\n    delete doctorsPermissions[doctor][index];\n  }\n\n  /**\n   * Returns all the patients addresses that gave the doctor access.\n   */\n  function getDoctorsPermissions(address doctor) public view returns (address[] memory) {\n    return doctorsPermissions[doctor];\n  }\n}\n",
  "sourcePath": "/home/karolinag/Documents/ssr2A/Self-Sovereign-Identity-4-Healthcare/contracts/Healthchain.sol",
  "compiler": {
    "name": "solc",
    "version": "0.5.16+commit.9c3226ce.Emscripten.clang"
  },
  "schemaVersion": "3.4.3",
  "updatedAt": "2021-10-18T09:54:42.591Z",
  "devdoc": {
    "methods": {}
  },
  "userdoc": {
    "methods": {
      "addDocument(string)": {
        "notice": "Add a medical record. Returns the index of the medical record."
      },
      "getDoctorsPermissions(address)": {
        "notice": "Returns all the patients addresses that gave the doctor access."
      },
      "getDocuments(address)": {
        "notice": "Get all medical records of a user."
      },
      "giveAccessToDoctor(address)": {
        "notice": "Allow a doctor to view all your documents."
      },
      "revokeAccessFromDoctor(address,uint256)": {
        "notice": "Revoke a doctors access to your documents."
      }
    }
  }
}